{
  "contractName": "Contribution",
  "abi": [
    {
      "constant": false,
      "inputs": [
        {
          "name": "_spender",
          "type": "address"
        },
        {
          "name": "_value",
          "type": "uint256"
        }
      ],
      "name": "approve",
      "outputs": [
        {
          "name": "",
          "type": "bool"
        }
      ],
      "payable": false,
      "stateMutability": "nonpayable",
      "type": "function"
    },
    {
      "constant": true,
      "inputs": [],
      "name": "totalSupply",
      "outputs": [
        {
          "name": "",
          "type": "uint256"
        }
      ],
      "payable": false,
      "stateMutability": "view",
      "type": "function"
    },
    {
      "constant": false,
      "inputs": [
        {
          "name": "_from",
          "type": "address"
        },
        {
          "name": "_to",
          "type": "address"
        },
        {
          "name": "_value",
          "type": "uint256"
        }
      ],
      "name": "transferFrom",
      "outputs": [
        {
          "name": "",
          "type": "bool"
        }
      ],
      "payable": false,
      "stateMutability": "nonpayable",
      "type": "function"
    },
    {
      "constant": true,
      "inputs": [
        {
          "name": "",
          "type": "address"
        }
      ],
      "name": "orgs",
      "outputs": [
        {
          "name": "details",
          "type": "bytes32"
        },
        {
          "name": "total",
          "type": "uint256"
        },
        {
          "name": "stakes",
          "type": "uint256"
        }
      ],
      "payable": false,
      "stateMutability": "view",
      "type": "function"
    },
    {
      "constant": false,
      "inputs": [
        {
          "name": "_spender",
          "type": "address"
        },
        {
          "name": "_subtractedValue",
          "type": "uint256"
        }
      ],
      "name": "decreaseApproval",
      "outputs": [
        {
          "name": "",
          "type": "bool"
        }
      ],
      "payable": false,
      "stateMutability": "nonpayable",
      "type": "function"
    },
    {
      "constant": true,
      "inputs": [
        {
          "name": "_owner",
          "type": "address"
        }
      ],
      "name": "balanceOf",
      "outputs": [
        {
          "name": "",
          "type": "uint256"
        }
      ],
      "payable": false,
      "stateMutability": "view",
      "type": "function"
    },
    {
      "constant": true,
      "inputs": [
        {
          "name": "_amount",
          "type": "uint256"
        }
      ],
      "name": "hasSufficientBalance",
      "outputs": [
        {
          "name": "",
          "type": "bool"
        }
      ],
      "payable": false,
      "stateMutability": "view",
      "type": "function"
    },
    {
      "constant": false,
      "inputs": [
        {
          "name": "_to",
          "type": "address"
        },
        {
          "name": "_value",
          "type": "uint256"
        }
      ],
      "name": "transfer",
      "outputs": [
        {
          "name": "",
          "type": "bool"
        }
      ],
      "payable": false,
      "stateMutability": "nonpayable",
      "type": "function"
    },
    {
      "constant": false,
      "inputs": [
        {
          "name": "_spender",
          "type": "address"
        },
        {
          "name": "_addedValue",
          "type": "uint256"
        }
      ],
      "name": "increaseApproval",
      "outputs": [
        {
          "name": "",
          "type": "bool"
        }
      ],
      "payable": false,
      "stateMutability": "nonpayable",
      "type": "function"
    },
    {
      "constant": true,
      "inputs": [
        {
          "name": "_owner",
          "type": "address"
        },
        {
          "name": "_spender",
          "type": "address"
        }
      ],
      "name": "allowance",
      "outputs": [
        {
          "name": "",
          "type": "uint256"
        }
      ],
      "payable": false,
      "stateMutability": "view",
      "type": "function"
    },
    {
      "anonymous": false,
      "inputs": [
        {
          "indexed": true,
          "name": "owner",
          "type": "address"
        },
        {
          "indexed": true,
          "name": "spender",
          "type": "address"
        },
        {
          "indexed": false,
          "name": "value",
          "type": "uint256"
        }
      ],
      "name": "Approval",
      "type": "event"
    },
    {
      "anonymous": false,
      "inputs": [
        {
          "indexed": true,
          "name": "from",
          "type": "address"
        },
        {
          "indexed": true,
          "name": "to",
          "type": "address"
        },
        {
          "indexed": false,
          "name": "value",
          "type": "uint256"
        }
      ],
      "name": "Transfer",
      "type": "event"
    },
    {
      "constant": false,
      "inputs": [
        {
          "name": "_org",
          "type": "address"
        },
        {
          "name": "_amount",
          "type": "uint256"
        }
      ],
      "name": "contributeToOrganization",
      "outputs": [],
      "payable": false,
      "stateMutability": "nonpayable",
      "type": "function"
    },
    {
      "constant": false,
      "inputs": [
        {
          "name": "_org",
          "type": "address"
        },
        {
          "name": "_project",
          "type": "uint256"
        },
        {
          "name": "_amount",
          "type": "uint256"
        }
      ],
      "name": "contributeToProject",
      "outputs": [],
      "payable": false,
      "stateMutability": "nonpayable",
      "type": "function"
    },
    {
      "constant": false,
      "inputs": [
        {
          "name": "_org",
          "type": "address"
        },
        {
          "name": "_project",
          "type": "uint256"
        },
        {
          "name": "_task",
          "type": "uint256"
        },
        {
          "name": "_amount",
          "type": "uint256"
        }
      ],
      "name": "contributeToTask",
      "outputs": [],
      "payable": false,
      "stateMutability": "nonpayable",
      "type": "function"
    },
    {
      "constant": false,
      "inputs": [
        {
          "name": "_org",
          "type": "address"
        },
        {
          "name": "_amount",
          "type": "uint256"
        }
      ],
      "name": "recallOrganizationContribution",
      "outputs": [],
      "payable": false,
      "stateMutability": "nonpayable",
      "type": "function"
    },
    {
      "constant": false,
      "inputs": [
        {
          "name": "_org",
          "type": "address"
        },
        {
          "name": "_project",
          "type": "uint256"
        },
        {
          "name": "_amount",
          "type": "uint256"
        }
      ],
      "name": "recallProjectContribution",
      "outputs": [],
      "payable": false,
      "stateMutability": "nonpayable",
      "type": "function"
    },
    {
      "constant": false,
      "inputs": [
        {
          "name": "_org",
          "type": "address"
        },
        {
          "name": "_project",
          "type": "uint256"
        },
        {
          "name": "_task",
          "type": "uint256"
        },
        {
          "name": "_amount",
          "type": "uint256"
        }
      ],
      "name": "recallTaskContribution",
      "outputs": [],
      "payable": false,
      "stateMutability": "nonpayable",
      "type": "function"
    }
  ],
  "bytecode": "0x608060405234801561001057600080fd5b50612214806100206000396000f3006080604052600436106100e6576000357c0100000000000000000000000000000000000000000000000000000000900463ffffffff168063095ea7b3146100eb57806318160ddd146101505780631cd0a2ef1461017b57806323b872dd146101c85780633bf479ff1461024d57806355f6695c146102ba578063661884631461031157806370a082311461037657806383e554a2146103cd5780639d7f238114610412578063a2bf5a5114610473578063a9059cbb146104c0578063c33a8a3214610525578063d572ad4814610586578063d73dd623146105dd578063dd62ed3e14610642575b600080fd5b3480156100f757600080fd5b50610136600480360381019080803573ffffffffffffffffffffffffffffffffffffffff169060200190929190803590602001909291905050506106b9565b604051808215151515815260200191505060405180910390f35b34801561015c57600080fd5b506101656107ab565b6040518082815260200191505060405180910390f35b34801561018757600080fd5b506101c6600480360381019080803573ffffffffffffffffffffffffffffffffffffffff169060200190929190803590602001909291905050506107b5565b005b3480156101d457600080fd5b50610233600480360381019080803573ffffffffffffffffffffffffffffffffffffffff169060200190929190803573ffffffffffffffffffffffffffffffffffffffff169060200190929190803590602001909291905050506109da565b604051808215151515815260200191505060405180910390f35b34801561025957600080fd5b5061028e600480360381019080803573ffffffffffffffffffffffffffffffffffffffff169060200190929190505050610d94565b604051808460001916600019168152602001838152602001828152602001935050505060405180910390f35b3480156102c657600080fd5b5061030f600480360381019080803573ffffffffffffffffffffffffffffffffffffffff1690602001909291908035906020019092919080359060200190929190505050610dbe565b005b34801561031d57600080fd5b5061035c600480360381019080803573ffffffffffffffffffffffffffffffffffffffff16906020019092919080359060200190929190505050611045565b604051808215151515815260200191505060405180910390f35b34801561038257600080fd5b506103b7600480360381019080803573ffffffffffffffffffffffffffffffffffffffff1690602001909291905050506112d6565b6040518082815260200191505060405180910390f35b3480156103d957600080fd5b506103f86004803603810190808035906020019092919050505061131e565b604051808215151515815260200191505060405180910390f35b34801561041e57600080fd5b50610471600480360381019080803573ffffffffffffffffffffffffffffffffffffffff169060200190929190803590602001909291908035906020019092919080359060200190929190505050611372565b005b34801561047f57600080fd5b506104be600480360381019080803573ffffffffffffffffffffffffffffffffffffffff16906020019092919080359060200190929190505050611618565b005b3480156104cc57600080fd5b5061050b600480360381019080803573ffffffffffffffffffffffffffffffffffffffff169060200190929190803590602001909291905050506117e4565b604051808215151515815260200191505060405180910390f35b34801561053157600080fd5b50610584600480360381019080803573ffffffffffffffffffffffffffffffffffffffff169060200190929190803590602001909291908035906020019092919080359060200190929190505050611a03565b005b34801561059257600080fd5b506105db600480360381019080803573ffffffffffffffffffffffffffffffffffffffff1690602001909291908035906020019092919080359060200190929190505050611c12565b005b3480156105e957600080fd5b50610628600480360381019080803573ffffffffffffffffffffffffffffffffffffffff16906020019092919080359060200190929190505050611e02565b604051808215151515815260200191505060405180910390f35b34801561064e57600080fd5b506106a3600480360381019080803573ffffffffffffffffffffffffffffffffffffffff169060200190929190803573ffffffffffffffffffffffffffffffffffffffff169060200190929190505050611ffe565b6040518082815260200191505060405180910390f35b600081600260003373ffffffffffffffffffffffffffffffffffffffff1673ffffffffffffffffffffffffffffffffffffffff16815260200190815260200160002060008573ffffffffffffffffffffffffffffffffffffffff1673ffffffffffffffffffffffffffffffffffffffff168152602001908152602001600020819055508273ffffffffffffffffffffffffffffffffffffffff163373ffffffffffffffffffffffffffffffffffffffff167f8c5be1e5ebec7d5bd14f71427d1e84f3dd0314c0f7b2291e5b200ac8c7c3b925846040518082815260200191505060405180910390a36001905092915050565b6000600154905090565b6000600460008473ffffffffffffffffffffffffffffffffffffffff1673ffffffffffffffffffffffffffffffffffffffff1681526020019081526020016000209050818160050160003373ffffffffffffffffffffffffffffffffffffffff1673ffffffffffffffffffffffffffffffffffffffff168152602001908152602001600020541015151561084857600080fd5b8181600101541015151561085b57600080fd5b6108af828260050160003373ffffffffffffffffffffffffffffffffffffffff1673ffffffffffffffffffffffffffffffffffffffff1681526020019081526020016000205461208590919063ffffffff16565b8160050160003373ffffffffffffffffffffffffffffffffffffffff1673ffffffffffffffffffffffffffffffffffffffff1681526020019081526020016000208190555061090b82826001015461208590919063ffffffff16565b8160010181905550610967828260040160003373ffffffffffffffffffffffffffffffffffffffff1673ffffffffffffffffffffffffffffffffffffffff1681526020019081526020016000205461208590919063ffffffff16565b8160040160003373ffffffffffffffffffffffffffffffffffffffff1673ffffffffffffffffffffffffffffffffffffffff168152602001908152602001600020819055506109c382826002015461208590919063ffffffff16565b81600201819055506109d5823361209e565b505050565b60008073ffffffffffffffffffffffffffffffffffffffff168373ffffffffffffffffffffffffffffffffffffffff1614151515610a1757600080fd5b6000808573ffffffffffffffffffffffffffffffffffffffff1673ffffffffffffffffffffffffffffffffffffffff168152602001908152602001600020548211151515610a6457600080fd5b600260008573ffffffffffffffffffffffffffffffffffffffff1673ffffffffffffffffffffffffffffffffffffffff16815260200190815260200160002060003373ffffffffffffffffffffffffffffffffffffffff1673ffffffffffffffffffffffffffffffffffffffff168152602001908152602001600020548211151515610aef57600080fd5b610b40826000808773ffffffffffffffffffffffffffffffffffffffff1673ffffffffffffffffffffffffffffffffffffffff1681526020019081526020016000205461208590919063ffffffff16565b6000808673ffffffffffffffffffffffffffffffffffffffff1673ffffffffffffffffffffffffffffffffffffffff16815260200190815260200160002081905550610bd3826000808673ffffffffffffffffffffffffffffffffffffffff1673ffffffffffffffffffffffffffffffffffffffff1681526020019081526020016000205461213590919063ffffffff16565b6000808573ffffffffffffffffffffffffffffffffffffffff1673ffffffffffffffffffffffffffffffffffffffff16815260200190815260200160002081905550610ca482600260008773ffffffffffffffffffffffffffffffffffffffff1673ffffffffffffffffffffffffffffffffffffffff16815260200190815260200160002060003373ffffffffffffffffffffffffffffffffffffffff1673ffffffffffffffffffffffffffffffffffffffff1681526020019081526020016000205461208590919063ffffffff16565b600260008673ffffffffffffffffffffffffffffffffffffffff1673ffffffffffffffffffffffffffffffffffffffff16815260200190815260200160002060003373ffffffffffffffffffffffffffffffffffffffff1673ffffffffffffffffffffffffffffffffffffffff168152602001908152602001600020819055508273ffffffffffffffffffffffffffffffffffffffff168473ffffffffffffffffffffffffffffffffffffffff167fddf252ad1be2c89b69c2b068fc378daa952ba7f163c4a11628f55a4df523b3ef846040518082815260200191505060405180910390a3600190509392505050565b60046020528060005260406000206000915090508060000154908060010154908060020154905083565b600080600460008673ffffffffffffffffffffffffffffffffffffffff1673ffffffffffffffffffffffffffffffffffffffff1681526020019081526020016000209150600460008673ffffffffffffffffffffffffffffffffffffffff1673ffffffffffffffffffffffffffffffffffffffff16815260200190815260200160002060060184815481101515610e5157fe5b90600052602060002090600502019050828160030160003373ffffffffffffffffffffffffffffffffffffffff1673ffffffffffffffffffffffffffffffffffffffff1681526020019081526020016000205410151515610eb157600080fd5b82816001015410151515610ec457600080fd5b610edb83826001015461208590919063ffffffff16565b8160010181905550610f37838260030160003373ffffffffffffffffffffffffffffffffffffffff1673ffffffffffffffffffffffffffffffffffffffff1681526020019081526020016000205461208590919063ffffffff16565b8160030160003373ffffffffffffffffffffffffffffffffffffffff1673ffffffffffffffffffffffffffffffffffffffff16815260200190815260200160002081905550610fd0838360040160003373ffffffffffffffffffffffffffffffffffffffff1673ffffffffffffffffffffffffffffffffffffffff1681526020019081526020016000205461208590919063ffffffff16565b8260040160003373ffffffffffffffffffffffffffffffffffffffff1673ffffffffffffffffffffffffffffffffffffffff1681526020019081526020016000208190555061102c83836002015461208590919063ffffffff16565b826002018190555061103e833361209e565b5050505050565b600080600260003373ffffffffffffffffffffffffffffffffffffffff1673ffffffffffffffffffffffffffffffffffffffff16815260200190815260200160002060008573ffffffffffffffffffffffffffffffffffffffff1673ffffffffffffffffffffffffffffffffffffffff16815260200190815260200160002054905080831115611156576000600260003373ffffffffffffffffffffffffffffffffffffffff1673ffffffffffffffffffffffffffffffffffffffff16815260200190815260200160002060008673ffffffffffffffffffffffffffffffffffffffff1673ffffffffffffffffffffffffffffffffffffffff168152602001908152602001600020819055506111ea565b611169838261208590919063ffffffff16565b600260003373ffffffffffffffffffffffffffffffffffffffff1673ffffffffffffffffffffffffffffffffffffffff16815260200190815260200160002060008673ffffffffffffffffffffffffffffffffffffffff1673ffffffffffffffffffffffffffffffffffffffff168152602001908152602001600020819055505b8373ffffffffffffffffffffffffffffffffffffffff163373ffffffffffffffffffffffffffffffffffffffff167f8c5be1e5ebec7d5bd14f71427d1e84f3dd0314c0f7b2291e5b200ac8c7c3b925600260003373ffffffffffffffffffffffffffffffffffffffff1673ffffffffffffffffffffffffffffffffffffffff16815260200190815260200160002060008873ffffffffffffffffffffffffffffffffffffffff1673ffffffffffffffffffffffffffffffffffffffff168152602001908152602001600020546040518082815260200191505060405180910390a3600191505092915050565b60008060008373ffffffffffffffffffffffffffffffffffffffff1673ffffffffffffffffffffffffffffffffffffffff168152602001908152602001600020549050919050565b6000816000803373ffffffffffffffffffffffffffffffffffffffff1673ffffffffffffffffffffffffffffffffffffffff168152602001908152602001600020541015151561136d57600080fd5b919050565b600080600460008773ffffffffffffffffffffffffffffffffffffffff1673ffffffffffffffffffffffffffffffffffffffff1681526020019081526020016000209150600460008773ffffffffffffffffffffffffffffffffffffffff1673ffffffffffffffffffffffffffffffffffffffff1681526020019081526020016000206006018581548110151561140557fe5b90600052602060002090600502016004018481548110151561142357fe5b90600052602060002090600602019050828160030160003373ffffffffffffffffffffffffffffffffffffffff1673ffffffffffffffffffffffffffffffffffffffff168152602001908152602001600020541015151561148357600080fd5b8281600101541015151561149657600080fd5b6114ad83826001015461208590919063ffffffff16565b8160010181905550611509838260030160003373ffffffffffffffffffffffffffffffffffffffff1673ffffffffffffffffffffffffffffffffffffffff1681526020019081526020016000205461208590919063ffffffff16565b8160030160003373ffffffffffffffffffffffffffffffffffffffff1673ffffffffffffffffffffffffffffffffffffffff168152602001908152602001600020819055506115a2838360040160003373ffffffffffffffffffffffffffffffffffffffff1673ffffffffffffffffffffffffffffffffffffffff1681526020019081526020016000205461208590919063ffffffff16565b8260040160003373ffffffffffffffffffffffffffffffffffffffff1673ffffffffffffffffffffffffffffffffffffffff168152602001908152602001600020819055506115fe83836002015461208590919063ffffffff16565b8260020181905550611610833361209e565b505050505050565b60006116238261131e565b50600460008473ffffffffffffffffffffffffffffffffffffffff1673ffffffffffffffffffffffffffffffffffffffff168152602001908152602001600020905061167c82826001015461213590919063ffffffff16565b81600101819055506116d8828260050160003373ffffffffffffffffffffffffffffffffffffffff1673ffffffffffffffffffffffffffffffffffffffff1681526020019081526020016000205461213590919063ffffffff16565b8160050160003373ffffffffffffffffffffffffffffffffffffffff1673ffffffffffffffffffffffffffffffffffffffff16815260200190815260200160002081905550611771828260040160003373ffffffffffffffffffffffffffffffffffffffff1673ffffffffffffffffffffffffffffffffffffffff1681526020019081526020016000205461213590919063ffffffff16565b8160040160003373ffffffffffffffffffffffffffffffffffffffff1673ffffffffffffffffffffffffffffffffffffffff168152602001908152602001600020819055506117cd82826002015461213590919063ffffffff16565b81600201819055506117df8233612151565b505050565b60008073ffffffffffffffffffffffffffffffffffffffff168373ffffffffffffffffffffffffffffffffffffffff161415151561182157600080fd5b6000803373ffffffffffffffffffffffffffffffffffffffff1673ffffffffffffffffffffffffffffffffffffffff16815260200190815260200160002054821115151561186e57600080fd5b6118bf826000803373ffffffffffffffffffffffffffffffffffffffff1673ffffffffffffffffffffffffffffffffffffffff1681526020019081526020016000205461208590919063ffffffff16565b6000803373ffffffffffffffffffffffffffffffffffffffff1673ffffffffffffffffffffffffffffffffffffffff16815260200190815260200160002081905550611952826000808673ffffffffffffffffffffffffffffffffffffffff1673ffffffffffffffffffffffffffffffffffffffff1681526020019081526020016000205461213590919063ffffffff16565b6000808573ffffffffffffffffffffffffffffffffffffffff1673ffffffffffffffffffffffffffffffffffffffff168152602001908152602001600020819055508273ffffffffffffffffffffffffffffffffffffffff163373ffffffffffffffffffffffffffffffffffffffff167fddf252ad1be2c89b69c2b068fc378daa952ba7f163c4a11628f55a4df523b3ef846040518082815260200191505060405180910390a36001905092915050565b600080611a0f8361131e565b50600460008773ffffffffffffffffffffffffffffffffffffffff1673ffffffffffffffffffffffffffffffffffffffff16815260200190815260200160002091508160060185815481101515611a6257fe5b906000526020600020906005020160040184815481101515611a8057fe5b90600052602060002090600602019050611aa783826001015461213590919063ffffffff16565b8160010181905550611b03838260030160003373ffffffffffffffffffffffffffffffffffffffff1673ffffffffffffffffffffffffffffffffffffffff1681526020019081526020016000205461213590919063ffffffff16565b8160030160003373ffffffffffffffffffffffffffffffffffffffff1673ffffffffffffffffffffffffffffffffffffffff16815260200190815260200160002081905550611b9c838360040160003373ffffffffffffffffffffffffffffffffffffffff1673ffffffffffffffffffffffffffffffffffffffff1681526020019081526020016000205461213590919063ffffffff16565b8260040160003373ffffffffffffffffffffffffffffffffffffffff1673ffffffffffffffffffffffffffffffffffffffff16815260200190815260200160002081905550611bf883836002015461213590919063ffffffff16565b8260020181905550611c0a8333612151565b505050505050565b600080611c1e8361131e565b50600460008673ffffffffffffffffffffffffffffffffffffffff1673ffffffffffffffffffffffffffffffffffffffff16815260200190815260200160002091508160060184815481101515611c7157fe5b90600052602060002090600502019050611c9883826001015461213590919063ffffffff16565b8160010181905550611cf4838260030160003373ffffffffffffffffffffffffffffffffffffffff1673ffffffffffffffffffffffffffffffffffffffff1681526020019081526020016000205461213590919063ffffffff16565b8160030160003373ffffffffffffffffffffffffffffffffffffffff1673ffffffffffffffffffffffffffffffffffffffff16815260200190815260200160002081905550611d8d838360040160003373ffffffffffffffffffffffffffffffffffffffff1673ffffffffffffffffffffffffffffffffffffffff1681526020019081526020016000205461213590919063ffffffff16565b8260040160003373ffffffffffffffffffffffffffffffffffffffff1673ffffffffffffffffffffffffffffffffffffffff16815260200190815260200160002081905550611de983836002015461213590919063ffffffff16565b8260020181905550611dfb8333612151565b5050505050565b6000611e9382600260003373ffffffffffffffffffffffffffffffffffffffff1673ffffffffffffffffffffffffffffffffffffffff16815260200190815260200160002060008673ffffffffffffffffffffffffffffffffffffffff1673ffffffffffffffffffffffffffffffffffffffff1681526020019081526020016000205461213590919063ffffffff16565b600260003373ffffffffffffffffffffffffffffffffffffffff1673ffffffffffffffffffffffffffffffffffffffff16815260200190815260200160002060008573ffffffffffffffffffffffffffffffffffffffff1673ffffffffffffffffffffffffffffffffffffffff168152602001908152602001600020819055508273ffffffffffffffffffffffffffffffffffffffff163373ffffffffffffffffffffffffffffffffffffffff167f8c5be1e5ebec7d5bd14f71427d1e84f3dd0314c0f7b2291e5b200ac8c7c3b925600260003373ffffffffffffffffffffffffffffffffffffffff1673ffffffffffffffffffffffffffffffffffffffff16815260200190815260200160002060008773ffffffffffffffffffffffffffffffffffffffff1673ffffffffffffffffffffffffffffffffffffffff168152602001908152602001600020546040518082815260200191505060405180910390a36001905092915050565b6000600260008473ffffffffffffffffffffffffffffffffffffffff1673ffffffffffffffffffffffffffffffffffffffff16815260200190815260200160002060008373ffffffffffffffffffffffffffffffffffffffff1673ffffffffffffffffffffffffffffffffffffffff16815260200190815260200160002054905092915050565b600082821115151561209357fe5b818303905092915050565b6120ef826000808473ffffffffffffffffffffffffffffffffffffffff1673ffffffffffffffffffffffffffffffffffffffff1681526020019081526020016000205461213590919063ffffffff16565b6000808373ffffffffffffffffffffffffffffffffffffffff1673ffffffffffffffffffffffffffffffffffffffff168152602001908152602001600020819055505050565b6000818301905082811015151561214857fe5b80905092915050565b6121a2826000808473ffffffffffffffffffffffffffffffffffffffff1673ffffffffffffffffffffffffffffffffffffffff1681526020019081526020016000205461208590919063ffffffff16565b6000808373ffffffffffffffffffffffffffffffffffffffff1673ffffffffffffffffffffffffffffffffffffffff1681526020019081526020016000208190555050505600a165627a7a72305820d9dffa38e1c3cf54258243c1fb6a84f36c107442c7529db36008c1df7f0f79450029",
  "source": "pragma solidity ^0.4.23;\r\n\r\nimport \"../imports/EscrowToken.sol\";\r\n\r\ncontract Contribution is EscrowToken  {\r\n\r\n    function contributeToOrganization(\r\n        address _org,\r\n        uint256 _amount\r\n    ) public {\r\n        hasSufficientBalance(_amount);\r\n        Organization storage o = orgs[_org];\r\n        o.total = o.total.add(_amount);\r\n        o.contributionOf[msg.sender] =\r\n        o.contributionOf[msg.sender].add(_amount);\r\n        o.stakeOf[msg.sender] = o.stakeOf[msg.sender].add(_amount);\r\n        o.stakes = o.stakes.add(_amount);\r\n        withdrawFrom(_amount, msg.sender);\r\n    }\r\n\r\n    function contributeToProject(\r\n        address _org,\r\n        uint256 _project,\r\n        uint256 _amount\r\n    ) public {\r\n        hasSufficientBalance(_amount);\r\n        Organization storage o = orgs[_org];\r\n        Project storage p = o.projects[_project];\r\n        p.total = p.total.add(_amount);\r\n        p.contributionOf[msg.sender] =\r\n        p.contributionOf[msg.sender].add(_amount);\r\n        o.stakeOf[msg.sender] = o.stakeOf[msg.sender].add(_amount);\r\n        o.stakes = o.stakes.add(_amount);\r\n        withdrawFrom(_amount, msg.sender);\r\n    }\r\n\r\n    function contributeToTask(\r\n        address _org,\r\n        uint256 _project,\r\n        uint256 _task,\r\n        uint256 _amount\r\n    ) public {\r\n        hasSufficientBalance(_amount);\r\n        Organization storage o = orgs[_org];\r\n        Task storage t = o.projects[_project].tasks[_task];\r\n        t.total = t.total.add(_amount);\r\n        t.contributionOf[msg.sender] =\r\n        t.contributionOf[msg.sender].add(_amount);\r\n        o.stakeOf[msg.sender] = o.stakeOf[msg.sender].add(_amount);\r\n        o.stakes = o.stakes.add(_amount);\r\n        withdrawFrom(_amount, msg.sender);\r\n    }\r\n\r\n    //Recall Contribution\r\n    function recallOrganizationContribution(\r\n        address _org,\r\n        uint256 _amount\r\n    ) public {\r\n        Organization storage o = orgs[_org];\r\n        //Not more than contributed by sender\r\n        require(o.contributionOf[msg.sender] >= _amount);\r\n        //Has not been distributed\r\n        require(o.total >= _amount);\r\n        o.contributionOf[msg.sender] =\r\n        o.contributionOf[msg.sender].sub(_amount);\r\n        o.total = o.total.sub(_amount);\r\n        o.stakeOf[msg.sender] = o.stakeOf[msg.sender].sub(_amount);\r\n        o.stakes = o.stakes.sub(_amount);\r\n        depositTo(_amount, msg.sender);\r\n    }\r\n\r\n    function recallProjectContribution(\r\n        address _org,\r\n        uint256 _project,\r\n        uint256 _amount\r\n    ) public {\r\n        Organization storage o = orgs[_org];\r\n        Project storage p = orgs[_org].projects[_project];\r\n        //Not more than contributed by sender\r\n        require(p.contributionOf[msg.sender] >= _amount);\r\n        //Still has enough after distribution\r\n        require(p.total >= _amount);\r\n        p.total = p.total.sub(_amount);\r\n        p.contributionOf[msg.sender] =\r\n        p.contributionOf[msg.sender].sub(_amount);\r\n        o.stakeOf[msg.sender] = o.stakeOf[msg.sender].sub(_amount);\r\n        o.stakes = o.stakes.sub(_amount);\r\n        depositTo(_amount, msg.sender);\r\n    }\r\n\r\n    function recallTaskContribution(\r\n        address _org,\r\n        uint256 _project,\r\n        uint256 _task,\r\n        uint256 _amount\r\n    ) public {\r\n        Organization storage o = orgs[_org];\r\n        Task storage t = orgs[_org].projects[_project].tasks[_task];\r\n        //Not more than contributed by sender\r\n        require(t.contributionOf[msg.sender] >= _amount);\r\n         //Still has enough after distribution\r\n        require(t.total >= _amount);\r\n        t.total = t.total.sub(_amount);\r\n        t.contributionOf[msg.sender] =\r\n        t.contributionOf[msg.sender].sub(_amount);\r\n        o.stakeOf[msg.sender] = o.stakeOf[msg.sender].sub(_amount);\r\n        o.stakes = o.stakes.sub(_amount);\r\n        depositTo(_amount, msg.sender);\r\n    }\r\n}\r\n",
  "sourcePath": "C:\\Users\\brand\\Documents\\GitHub\\expopulo-app\\contracts\\sections\\Contribution.sol",
  "compiler": {
    "name": "solc",
    "version": "0.4.23+commit.124ca40d.Emscripten.clang"
  },
  "schemaVersion": "2.0.0",
  "updatedAt": "2018-06-28T18:18:58.388Z"
}