{
  "contractName": "GenericStorage",
  "abi": [
    {
      "constant": true,
      "inputs": [
        {
          "name": "",
          "type": "address"
        }
      ],
      "name": "orgs",
      "outputs": [
        {
          "name": "details",
          "type": "bytes32"
        },
        {
          "name": "total",
          "type": "uint256"
        },
        {
          "name": "stakes",
          "type": "uint256"
        }
      ],
      "payable": false,
      "stateMutability": "view",
      "type": "function"
    }
  ],
  "bytecode": "0x608060405234801561001057600080fd5b50610104806100206000396000f300608060405260043610603f576000357c0100000000000000000000000000000000000000000000000000000000900463ffffffff1680633bf479ff146044575b600080fd5b348015604f57600080fd5b506082600480360381019080803573ffffffffffffffffffffffffffffffffffffffff16906020019092919050505060ae565b604051808460001916600019168152602001838152602001828152602001935050505060405180910390f35b600160205280600052604060002060009150905080600001549080600101549080600201549050835600a165627a7a72305820142d812ebeababf5d265a310c812a816672bbf2f22a52d7ce55ea62e6248507c0029",
  "source": "pragma solidity ^0.4.23;\n\ncontract GenericStorage {\n    uint256 paymentLockout;\n    mapping(address => Organization) public orgs;\n\n    struct Organization {\n        bytes32 details;\n        uint256 total;\n        uint256 stakes;\n        mapping(address => Admin) admin;\n        mapping(address => uint256) stakeOf;\n        mapping(address => uint256) contributionOf;\n        Project[] projects;\n    }\n\n    struct Admin {\n        bool isValid;\n        uint256 enableVotes;\n        uint256 disableVotes;\n        mapping(address => uint256) enableVotesOf;\n        mapping(address => uint256) disableVotesOf;\n    }\n\n    struct Project {\n        bytes32 details;\n        uint256 total;\n        uint256 distributed;\n        mapping(address => uint256) contributionOf;\n        Task[] tasks;\n    }\n\n    struct Task {\n        bytes32 details;\n        uint256 total;\n        uint256 distributed;\n        mapping(address => uint256) contributionOf;\n        mapping(address => Payment) payments;\n        Submission[] submissions;\n    }\n\n    struct Submission {\n        bytes32 details;\n        address creator;\n    }\n    struct Payment {\n        uint256 amount;\n        uint256 unlockTime;\n    }\n\n    modifier validDetail(bytes32 details) {\n        require(details != bytes32(0));\n        _;\n    }\n\n    modifier isAdmin(address _org) {\n        require(orgs[_org].admin[msg.sender].isValid);\n        _;\n    }\n}\n",
  "sourcePath": "/home/brandon/Github/expopulo-app/contracts/imports/GenericStorage.sol",
  "compiler": {
    "name": "solc",
    "version": "0.4.23+commit.124ca40d.Emscripten.clang"
  },
  "schemaVersion": "2.0.0",
  "updatedAt": "2018-06-28T18:59:06.190Z"
}