{
  "contractName": "GenericStorage",
  "abi": [
    {
      "constant": true,
      "inputs": [
        {
          "name": "",
          "type": "address"
        }
      ],
      "name": "orgs",
      "outputs": [
        {
          "name": "details",
          "type": "bytes32"
        },
        {
          "name": "total",
          "type": "uint256"
        },
        {
          "name": "stakes",
          "type": "uint256"
        }
      ],
      "payable": false,
      "stateMutability": "view",
      "type": "function"
    }
  ],
  "bytecode": "0x608060405234801561001057600080fd5b50610104806100206000396000f300608060405260043610603f576000357c0100000000000000000000000000000000000000000000000000000000900463ffffffff1680633bf479ff146044575b600080fd5b348015604f57600080fd5b506082600480360381019080803573ffffffffffffffffffffffffffffffffffffffff16906020019092919050505060ae565b604051808460001916600019168152602001838152602001828152602001935050505060405180910390f35b600160205280600052604060002060009150905080600001549080600101549080600201549050835600a165627a7a72305820cf6589a6c3ed567a1fa8a8a305cefce1f76e742e6b346c6d0fc8c3b804b2f28c0029",
  "source": "pragma solidity ^0.4.23;\r\n\r\ncontract GenericStorage {\r\n    uint256 paymentLockout;\r\n    mapping(address => Organization) public orgs;\r\n\r\n    struct Organization {\r\n        bytes32 details;\r\n        uint256 total;\r\n        uint256 stakes;\r\n        mapping(address => Admin) admin;\r\n        mapping(address => uint256) stakeOf;\r\n        mapping(address => uint256) contributionOf;\r\n        Project[] projects;\r\n    }\r\n\r\n    struct Admin {\r\n        bool isValid;\r\n        uint256 enableVotes;\r\n        uint256 disableVotes;\r\n        mapping(address => uint256) enableVotesOf;\r\n        mapping(address => uint256) disableVotesOf;\r\n    }\r\n\r\n    struct Project {\r\n        bytes32 details;\r\n        uint256 total;\r\n        uint256 distributed;\r\n        mapping(address => uint256) contributionOf;\r\n        Task[] tasks;\r\n    }\r\n\r\n    struct Task {\r\n        bytes32 details;\r\n        uint256 total;\r\n        uint256 distributed;\r\n        mapping(address => uint256) contributionOf;\r\n        mapping(address => Payment) payments;\r\n        Submission[] submissions;\r\n    }\r\n\r\n    struct Submission {\r\n        bytes32 details;\r\n        address creator;\r\n    }\r\n    struct Payment {\r\n        uint256 amount;\r\n        uint256 unlockTime;\r\n    }\r\n\r\n    modifier validDetail(bytes32 details) {\r\n        require(details != bytes32(0));\r\n        _;\r\n    }\r\n\r\n    modifier isAdmin(address _org) {\r\n        require(orgs[_org].admin[msg.sender].isValid);\r\n        _;\r\n    }\r\n}\r\n",
  "sourcePath": "C:\\Users\\brand\\Documents\\GitHub\\expopulo-app\\contracts\\imports\\GenericStorage.sol",
  "compiler": {
    "name": "solc",
    "version": "0.4.23+commit.124ca40d.Emscripten.clang"
  },
  "schemaVersion": "2.0.0",
  "updatedAt": "2018-06-28T18:18:58.387Z"
}