{
  "contractName": "Gettable",
  "abi": [
    {
      "constant": true,
      "inputs": [
        {
          "name": "",
          "type": "address"
        }
      ],
      "name": "orgs",
      "outputs": [
        {
          "name": "details",
          "type": "bytes32"
        },
        {
          "name": "total",
          "type": "uint256"
        },
        {
          "name": "stakes",
          "type": "uint256"
        }
      ],
      "payable": false,
      "stateMutability": "view",
      "type": "function"
    },
    {
      "constant": true,
      "inputs": [
        {
          "name": "_org",
          "type": "address"
        },
        {
          "name": "_project",
          "type": "uint256"
        }
      ],
      "name": "getProject",
      "outputs": [
        {
          "name": "",
          "type": "bytes32"
        },
        {
          "name": "",
          "type": "uint256"
        },
        {
          "name": "",
          "type": "uint256"
        }
      ],
      "payable": false,
      "stateMutability": "view",
      "type": "function"
    },
    {
      "constant": true,
      "inputs": [
        {
          "name": "_org",
          "type": "address"
        },
        {
          "name": "_project",
          "type": "uint256"
        },
        {
          "name": "_task",
          "type": "uint256"
        }
      ],
      "name": "getTask",
      "outputs": [
        {
          "name": "",
          "type": "bytes32"
        },
        {
          "name": "",
          "type": "uint256"
        },
        {
          "name": "",
          "type": "uint256"
        }
      ],
      "payable": false,
      "stateMutability": "view",
      "type": "function"
    },
    {
      "constant": true,
      "inputs": [
        {
          "name": "_org",
          "type": "address"
        },
        {
          "name": "_project",
          "type": "uint256"
        },
        {
          "name": "_task",
          "type": "uint256"
        },
        {
          "name": "_submission",
          "type": "uint256"
        }
      ],
      "name": "getSubmission",
      "outputs": [
        {
          "name": "",
          "type": "bytes32"
        },
        {
          "name": "",
          "type": "address"
        }
      ],
      "payable": false,
      "stateMutability": "view",
      "type": "function"
    },
    {
      "constant": true,
      "inputs": [
        {
          "name": "_org",
          "type": "address"
        },
        {
          "name": "_project",
          "type": "uint256"
        },
        {
          "name": "_task",
          "type": "uint256"
        },
        {
          "name": "_payee",
          "type": "address"
        }
      ],
      "name": "getPayment",
      "outputs": [
        {
          "name": "",
          "type": "uint256"
        },
        {
          "name": "",
          "type": "uint256"
        }
      ],
      "payable": false,
      "stateMutability": "view",
      "type": "function"
    },
    {
      "constant": true,
      "inputs": [
        {
          "name": "_org",
          "type": "address"
        },
        {
          "name": "_target",
          "type": "address"
        }
      ],
      "name": "getAdmin",
      "outputs": [
        {
          "name": "",
          "type": "bool"
        },
        {
          "name": "",
          "type": "uint256"
        },
        {
          "name": "",
          "type": "uint256"
        }
      ],
      "payable": false,
      "stateMutability": "view",
      "type": "function"
    },
    {
      "constant": true,
      "inputs": [
        {
          "name": "_org",
          "type": "address"
        },
        {
          "name": "_target",
          "type": "address"
        },
        {
          "name": "_sender",
          "type": "address"
        }
      ],
      "name": "getAdminEnableVotesOf",
      "outputs": [
        {
          "name": "",
          "type": "uint256"
        }
      ],
      "payable": false,
      "stateMutability": "view",
      "type": "function"
    },
    {
      "constant": true,
      "inputs": [
        {
          "name": "_org",
          "type": "address"
        },
        {
          "name": "_target",
          "type": "address"
        },
        {
          "name": "_sender",
          "type": "address"
        }
      ],
      "name": "getAdminDisableVotesOf",
      "outputs": [
        {
          "name": "",
          "type": "uint256"
        }
      ],
      "payable": false,
      "stateMutability": "view",
      "type": "function"
    },
    {
      "constant": true,
      "inputs": [
        {
          "name": "_org",
          "type": "address"
        },
        {
          "name": "_target",
          "type": "address"
        }
      ],
      "name": "getOrgContribtuionOf",
      "outputs": [
        {
          "name": "",
          "type": "uint256"
        }
      ],
      "payable": false,
      "stateMutability": "view",
      "type": "function"
    },
    {
      "constant": true,
      "inputs": [
        {
          "name": "_org",
          "type": "address"
        },
        {
          "name": "_project",
          "type": "uint256"
        },
        {
          "name": "_target",
          "type": "address"
        }
      ],
      "name": "getProjectContributionOf",
      "outputs": [
        {
          "name": "",
          "type": "uint256"
        }
      ],
      "payable": false,
      "stateMutability": "view",
      "type": "function"
    },
    {
      "constant": true,
      "inputs": [
        {
          "name": "_org",
          "type": "address"
        },
        {
          "name": "_project",
          "type": "uint256"
        },
        {
          "name": "_task",
          "type": "uint256"
        },
        {
          "name": "_target",
          "type": "address"
        }
      ],
      "name": "getTaskContributionOf",
      "outputs": [
        {
          "name": "",
          "type": "uint256"
        }
      ],
      "payable": false,
      "stateMutability": "view",
      "type": "function"
    },
    {
      "constant": true,
      "inputs": [
        {
          "name": "_org",
          "type": "address"
        },
        {
          "name": "_target",
          "type": "address"
        }
      ],
      "name": "getStakeOf",
      "outputs": [
        {
          "name": "",
          "type": "uint256"
        }
      ],
      "payable": false,
      "stateMutability": "view",
      "type": "function"
    }
  ],
  "bytecode": "0x608060405234801561001057600080fd5b50610f0f806100206000396000f3006080604052600436106100ba576000357c0100000000000000000000000000000000000000000000000000000000900463ffffffff16806304eaca09146100bf57806318fe43121461015157806329aa9573146101e85780633bf479ff1461027f5780637256a37a146102ec578063762cf138146103635780637aec38fc146103da578063c71a7f2e1461045b578063dd550ae1146104e6578063e019f9aa1461055d578063e1f844d8146105de578063f7c51c0214610667575b600080fd5b3480156100cb57600080fd5b50610134600480360381019080803573ffffffffffffffffffffffffffffffffffffffff1690602001909291908035906020019092919080359060200190929190803573ffffffffffffffffffffffffffffffffffffffff169060200190929190505050610717565b604051808381526020018281526020019250505060405180910390f35b34801561015d57600080fd5b506101d2600480360381019080803573ffffffffffffffffffffffffffffffffffffffff169060200190929190803573ffffffffffffffffffffffffffffffffffffffff169060200190929190803573ffffffffffffffffffffffffffffffffffffffff1690602001909291905050506107f1565b6040518082815260200191505060405180910390f35b3480156101f457600080fd5b50610269600480360381019080803573ffffffffffffffffffffffffffffffffffffffff169060200190929190803573ffffffffffffffffffffffffffffffffffffffff169060200190929190803573ffffffffffffffffffffffffffffffffffffffff1690602001909291905050506108bc565b6040518082815260200191505060405180910390f35b34801561028b57600080fd5b506102c0600480360381019080803573ffffffffffffffffffffffffffffffffffffffff169060200190929190505050610987565b604051808460001916600019168152602001838152602001828152602001935050505060405180910390f35b3480156102f857600080fd5b50610337600480360381019080803573ffffffffffffffffffffffffffffffffffffffff169060200190929190803590602001909291905050506109b1565b604051808460001916600019168152602001838152602001828152602001935050505060405180910390f35b34801561036f57600080fd5b506103c4600480360381019080803573ffffffffffffffffffffffffffffffffffffffff169060200190929190803573ffffffffffffffffffffffffffffffffffffffff169060200190929190505050610a33565b6040518082815260200191505060405180910390f35b3480156103e657600080fd5b5061042f600480360381019080803573ffffffffffffffffffffffffffffffffffffffff1690602001909291908035906020019092919080359060200190929190505050610abd565b604051808460001916600019168152602001838152602001828152602001935050505060405180910390f35b34801561046757600080fd5b506104d0600480360381019080803573ffffffffffffffffffffffffffffffffffffffff1690602001909291908035906020019092919080359060200190929190803573ffffffffffffffffffffffffffffffffffffffff169060200190929190505050610b5f565b6040518082815260200191505060405180910390f35b3480156104f257600080fd5b50610547600480360381019080803573ffffffffffffffffffffffffffffffffffffffff169060200190929190803573ffffffffffffffffffffffffffffffffffffffff169060200190929190505050610c27565b6040518082815260200191505060405180910390f35b34801561056957600080fd5b506105c8600480360381019080803573ffffffffffffffffffffffffffffffffffffffff16906020019092919080359060200190929190803573ffffffffffffffffffffffffffffffffffffffff169060200190929190505050610cb1565b6040518082815260200191505060405180910390f35b3480156105ea57600080fd5b5061063f600480360381019080803573ffffffffffffffffffffffffffffffffffffffff169060200190929190803573ffffffffffffffffffffffffffffffffffffffff169060200190929190505050610d5a565b6040518084151515158152602001838152602001828152602001935050505060405180910390f35b34801561067357600080fd5b506106c6600480360381019080803573ffffffffffffffffffffffffffffffffffffffff169060200190929190803590602001909291908035906020019092919080359060200190929190505050610e0b565b6040518083600019166000191681526020018273ffffffffffffffffffffffffffffffffffffffff1673ffffffffffffffffffffffffffffffffffffffff1681526020019250505060405180910390f35b6000806000600160008873ffffffffffffffffffffffffffffffffffffffff1673ffffffffffffffffffffffffffffffffffffffff1681526020019081526020016000206006018681548110151561076b57fe5b90600052602060002090600502016004018581548110151561078957fe5b906000526020600020906006020160040160008573ffffffffffffffffffffffffffffffffffffffff1673ffffffffffffffffffffffffffffffffffffffff168152602001908152602001600020905080600001548160010154925092505094509492505050565b6000600160008573ffffffffffffffffffffffffffffffffffffffff1673ffffffffffffffffffffffffffffffffffffffff16815260200190815260200160002060030160008473ffffffffffffffffffffffffffffffffffffffff1673ffffffffffffffffffffffffffffffffffffffff16815260200190815260200160002060040160008373ffffffffffffffffffffffffffffffffffffffff1673ffffffffffffffffffffffffffffffffffffffff1681526020019081526020016000205490509392505050565b6000600160008573ffffffffffffffffffffffffffffffffffffffff1673ffffffffffffffffffffffffffffffffffffffff16815260200190815260200160002060030160008473ffffffffffffffffffffffffffffffffffffffff1673ffffffffffffffffffffffffffffffffffffffff16815260200190815260200160002060030160008373ffffffffffffffffffffffffffffffffffffffff1673ffffffffffffffffffffffffffffffffffffffff1681526020019081526020016000205490509392505050565b60016020528060005260406000206000915090508060000154908060010154908060020154905083565b600080600080600160008773ffffffffffffffffffffffffffffffffffffffff1673ffffffffffffffffffffffffffffffffffffffff16815260200190815260200160002060060185815481101515610a0657fe5b90600052602060002090600502019050806000015481600101548260020154935093509350509250925092565b6000600160008473ffffffffffffffffffffffffffffffffffffffff1673ffffffffffffffffffffffffffffffffffffffff16815260200190815260200160002060040160008373ffffffffffffffffffffffffffffffffffffffff1673ffffffffffffffffffffffffffffffffffffffff16815260200190815260200160002054905092915050565b600080600080600160008873ffffffffffffffffffffffffffffffffffffffff1673ffffffffffffffffffffffffffffffffffffffff16815260200190815260200160002060060186815481101515610b1257fe5b906000526020600020906005020160040185815481101515610b3057fe5b906000526020600020906006020190508060000154816001015482600201549350935093505093509350939050565b6000600160008673ffffffffffffffffffffffffffffffffffffffff1673ffffffffffffffffffffffffffffffffffffffff16815260200190815260200160002060060184815481101515610bb057fe5b906000526020600020906005020160040183815481101515610bce57fe5b906000526020600020906006020160030160008373ffffffffffffffffffffffffffffffffffffffff1673ffffffffffffffffffffffffffffffffffffffff168152602001908152602001600020549050949350505050565b6000600160008473ffffffffffffffffffffffffffffffffffffffff1673ffffffffffffffffffffffffffffffffffffffff16815260200190815260200160002060050160008373ffffffffffffffffffffffffffffffffffffffff1673ffffffffffffffffffffffffffffffffffffffff16815260200190815260200160002054905092915050565b6000600160008573ffffffffffffffffffffffffffffffffffffffff1673ffffffffffffffffffffffffffffffffffffffff16815260200190815260200160002060060183815481101515610d0257fe5b906000526020600020906005020160030160008373ffffffffffffffffffffffffffffffffffffffff1673ffffffffffffffffffffffffffffffffffffffff1681526020019081526020016000205490509392505050565b600080600080600160008773ffffffffffffffffffffffffffffffffffffffff1673ffffffffffffffffffffffffffffffffffffffff16815260200190815260200160002060030160008673ffffffffffffffffffffffffffffffffffffffff1673ffffffffffffffffffffffffffffffffffffffff16815260200190815260200160002090508060000160009054906101000a900460ff1681600101548260020154935093509350509250925092565b6000806000600160008873ffffffffffffffffffffffffffffffffffffffff1673ffffffffffffffffffffffffffffffffffffffff16815260200190815260200160002060060186815481101515610e5f57fe5b906000526020600020906005020160040185815481101515610e7d57fe5b906000526020600020906006020160050184815481101515610e9b57fe5b9060005260206000209060020201905080600001548160010160009054906101000a900473ffffffffffffffffffffffffffffffffffffffff169250925050945094925050505600a165627a7a72305820039dcd81496ca07338df42a77336cde1556910822094b15c425a4ea9925f49e90029",
  "source": "pragma solidity ^0.4.23;\r\n\r\nimport \"./GenericStorage.sol\";\r\n\r\ncontract Gettable is GenericStorage  {\r\n\r\n    //Structure Getter Functions\r\n    function getProject(\r\n        address _org,\r\n        uint256 _project\r\n    ) public view returns(bytes32, uint256, uint256) {\r\n        Project storage p = orgs[_org].projects[_project];\r\n        return (p.details, p.total, p.distributed);\r\n    }\r\n\r\n    function getTask(\r\n        address _org,\r\n        uint256 _project,\r\n        uint256 _task\r\n    ) public view returns(bytes32, uint256, uint256) {\r\n        Task storage t = orgs[_org].projects[_project].tasks[_task];\r\n        return (t.details, t.total, t.distributed);\r\n    }\r\n\r\n    function getSubmission(\r\n        address _org,\r\n        uint256 _project,\r\n        uint256 _task,\r\n        uint256 _submission\r\n    ) public view returns(bytes32, address) {\r\n        Submission storage s =\r\n        orgs[_org].projects[_project].tasks[_task].submissions[_submission];\r\n        return (s.details, s.creator);\r\n    }\r\n\r\n    function getPayment(\r\n        address _org,\r\n        uint256 _project,\r\n        uint256 _task,\r\n        address _payee\r\n    ) public view returns(uint256, uint256) {\r\n        Payment storage p =\r\n        orgs[_org].projects[_project].tasks[_task].payments[_payee];\r\n        return (p.amount, p.unlockTime);\r\n    }\r\n\r\n    function getAdmin(\r\n        address _org,\r\n        address _target\r\n    ) public view returns(bool, uint256, uint256) {\r\n        Admin storage a = orgs[_org].admin[_target];\r\n        return (a.isValid, a.enableVotes, a.disableVotes);\r\n    }\r\n\r\n    ////Depth Getter Functions\r\n    //Admin\r\n    function getAdminEnableVotesOf(\r\n        address _org,\r\n        address _target,\r\n        address _sender\r\n    ) public view returns(uint256) {\r\n        return orgs[_org].admin[_target].enableVotesOf[_sender];\r\n    }\r\n\r\n    function getAdminDisableVotesOf(\r\n        address _org,\r\n        address _target,\r\n        address _sender\r\n    ) public view returns(uint256) {\r\n        return orgs[_org].admin[_target].disableVotesOf[_sender];\r\n    }\r\n\r\n    //Contributions\r\n    function getOrgContribtuionOf(\r\n        address _org,\r\n        address _target\r\n    ) public view returns(uint256){\r\n        return orgs[_org].contributionOf[_target];\r\n    }\r\n\r\n    function getProjectContributionOf(\r\n        address _org,\r\n        uint256 _project,\r\n        address _target\r\n    ) public view returns(uint256){\r\n        return orgs[_org].projects[_project].contributionOf[_target];\r\n    }\r\n\r\n    function getTaskContributionOf(\r\n        address _org,\r\n        uint256 _project,\r\n        uint256 _task,\r\n        address _target\r\n    ) public view returns(uint256){\r\n        return\r\n        orgs[_org].projects[_project].tasks[_task].contributionOf[_target];\r\n    }\r\n\r\n    //Stake\r\n    function getStakeOf(\r\n        address _org,\r\n        address _target\r\n    ) public view returns(uint256) {\r\n        return orgs[_org].stakeOf[_target];\r\n    }\r\n}\r\n",
  "sourcePath": "C:\\Users\\brand\\Documents\\GitHub\\expopulo-app\\contracts\\imports\\Gettable.sol",
  "compiler": {
    "name": "solc",
    "version": "0.4.23+commit.124ca40d.Emscripten.clang"
  },
  "schemaVersion": "2.0.0",
  "updatedAt": "2018-06-28T18:18:58.387Z"
}